S0100000475245454E5F4C45442E7331393F
S21402040000600020D504020043050200DD0602005B
S21402041000000000000000000000000000000000D5
S2140204200000000000000000000000004705020077
S2140204300000000000000000490502004B05020013
S2140204404F050200570502005F050200670502001D
S2140204506F050200770502007F050200870502008D
S2140204608F050200970502009F050200A7050200FD
S214020470AF050200B7050200BF050200C70502006D
S214020480CF050200D7050200DF050200E7050200DD
S214020490EF050200F7050200FF050200070602004C
S2140204A00F060200170602001F06020027060200B9
S2140204B02F060200370602003F0602004706020029
S2140204C0A40D020080E0FF1F0000000080E0FF1F76
S2140204D0E000000010B572B600F09EF90D4B07E082
S2140204E0186859681C000C349A6800F019F8230042
S2140204F0094A9342F4D306E018681C000834596887
S21402050000F017F82300054A9342F5D362B600F0CE
S214020510F2FBFEE7C0040200CC040200D404020090
S21402052010B5002302E010C810C104339342FAD378
S21402053010BD002302E0002204C004338B42FAD32B
S2140205407047FEE7FEE7FEE7FEE7FEE7FEE710B5CA
S214020550FFF7FCFF10BD10B5FFF7F8FF10BD10B592
S214020560FFF7F4FF10BD10B5FFF7F0FF10BD10B592
S214020570FFF7ECFF10BD10B5FFF7E8FF10BD10B592
S214020580FFF7E4FF10BD10B5FFF7E0FF10BD10B592
S21402059000F0ECF810BD10B500F0F8F810BD10B57C
S2140205A0FFF7D4FF10BD10B5FFF7D0FF10BD10B592
S2140205B000F0FCF810BD10B500F00AF910BD10B539
S2140205C000F018F910BD10B5FFF7C0FF10BD10B54A
S2140205D0FFF7BCFF10BD10B5FFF7B8FF10BD10B592
S2140205E0FFF7B4FF10BD10B5FFF7B0FF10BD10B592
S2140205F0FFF7ACFF10BD10B5FFF7A8FF10BD10B592
S214020600FFF7A4FF10BD10B5FFF7A0FF10BD10B591
S214020610FFF79CFF10BD10B5FFF798FF10BD10B591
S214020620FFF794FF10BD10B5FFF790FF10BD10B591
S214020630FFF78CFF10BD10B5FFF788FF10BD10B591
S214020640FFF784FF10BD10B5FFF780FF10BDFFFF58
S21402065080B582B000AF00237B6003E0C0467B68B3
S21402066001337B607B68044A9342F7D9C046C04692
S214020670BD4602B080BDC0463F420F0080B500AF07
S214020680124A134BD3581149802252011343104A7F
S2140206908B50104B5A690F4B802149000A435A610E
S2140206A00D4B5A690C4B20210A435A610A4B5A6871
S2140206B0094B20210A435A60074BDA68064B202171
S2140206C00A43DA60FFF7C4FFC046F5E7007004404D
S2140206D03810000000C00440C0F00F4004207146ED
S2140206E0084202D0EFF3098001E0EFF30880816947
S2140206F00A88074B9A4200D0FEE702318161016800
S214020700012901D0002100E0202101607047C04687
S214020710ABBE000080B582B000AF786039607B68FF
S214020720DB78DBB21A001023134006D17B689B7875
S214020730DBB21A002023134006D00A4B1B68396826
S2140207407A681000984705E0074B1B6839687A6894
S21402075010009847BFF34F8FC046C046BD4602B052
S21402076080BDC04688E0FF1F8CE0FF1F80B500AF4B
S214020770044B1B68044A19001000FFF7CBFFC04663
S214020780BD4680BD80E0FF1F0060064080B500AF1A
S214020790044B5B68044A19001000FFF7BBFFC04613
S2140207A0BD4680BD80E0FF1F0070064080B500AFEA
S2140207B0044B1A68044B1B68044819009047C0464D
S2140207C0BD4680BD94E0FF1F90E0FF1F00A00640DC
S2140207D080B500AF044B1A68044B5B6804481900E6
S2140207E09047C046BD4680BDA4E0FF1F98E0FF1FAD
S2140207F000B0064080B500AF044B1A68044B9B68F5
S214020800044819009047C046BD4680BDA4E0FF1FBD
S21402081098E0FF1F00C0064080B500AF044A882358
S2140208205B010021D15000F061FAC046BD4680BD92
S214020830007004402022C36810B59343C3608269E7
S214020840836A04009A420CD000F014F8E268074B60
S2140208501A4010231343E360A36AA3612369E36289
S2140208602360E368024A1340E36010BDEFCFFFFF48
S214020870BFBFFFFF70B50400134AE36805691A405C
S2140208800168C06AE26082221A40022A02D001206F
S214020890404270BDDB030CD5814200D201008D427E
S2140208A009D10023094AA360E368E5621340256084
S2140208B0E3600020EDE722002800491B00F008F85C
S2140208C00028EED0E3E7C046FFFFF7FFFFFFFEFF7C
S2140208D0F7B5D5680F00140056690190EB0205D5EE
S2140208E0102330001D4300F047FAA061104B1D4252
S2140208F00FD03000A16900F048FA002806DA8023FB
S2140209000120E26840421343E3600FE0094B1D40BA
S214020910E5603A003000019900F03DFA4300A26912
S2140209205B08FB1AD318A3610028E8D1FEBDC046B7
S21402093010000200EFFFFDFFF7B54369C66801939A
S214020940364B04000D0000921E420BD0019800F0B8
S21402095016FA071E06D1009B012B06D0022B2DD0BD
S214020960002B06D002273800FEBD200000F05AF801
S2140209702D18002DF6DBB30404D52368E26A9A42EA
S21402098000D2E362A369AB420EDCE16A22688A42C5
S21402099000D20A002169D0180091401AA84203DB4F
S2140209A0206B1918A94228DC20231E430023A562C7
S2140209B0A36063601A4B1E40E660D4E7019800F01D
S2140209C0DBF9E268002804DA802313430127E36098
S2140209D0C9E7E16A2368994200D90B00A1695B184E
S2140209E021695B1A920603D5A26A934200DA1300C3
S2140209F0834200DA0300ED18BBE7EB1AB50701D510
S214020A00181AA060F00703D50099521A9A1A626063
S214020A10009AD118202321609E43CBE703001000E2
S214020A20BFCFF7FFC16802008B0705D12122012044
S214020A300E4B40421A60704720230B4009030AD52A
S214020A40002B02D0806A0138F5E793690068C01867
S214020A501369C01AF7E7002B01D0806AEBE7036838
S214020A60816900695B18181AE5E7C0465CE1FF1F5A
S214020A7070B5184C18492200002000F08BF880232D
S214020A8080225B0000212000D20000F02FF8134CD9
S214020A90134D22002900012000F07CF880238022DA
S214020AA05B0000212000D20000F020F80D4B1B68EE
S214020AB0022B0DDD0C4C29002200022000F06AF801
S214020AC080238022002120005B00D20000F00EF876
S214020AD070BDC046A8E0FF1FA00D0200E4E0FF1FA5
S214020AE0A20D02009C0D020020E1FF1FF0B5C568B2
S214020AF004000120AE070CD080208000824213D072
S214020B008020C000824205D08020400082420BD066
S214020B10FF38F0BD21000123243115430020216156
S214020B202160E361E560F4E7024F5E1E0120BE42EB
S214020B30F3D9EEE7FEFFFF000300032110B51A000B
S214020B400B4219D1114C1368114959189943214285
S214020B5019D0DCB2511C002C0BD0FF242402911CAD
S214020B60234206D0FF2109040B40591E8B41D3189D
S214020B70D91C0130081A05E001335C1E2478002CCB
S214020B80DDD1101A10BD0432DDE7C04680808080B9
S214020B90FFFEFEFEF7B50D0001901000140000F0F7
S214020BA033F82B78722B1CD0772B1DD0612B26D1D5
S214020BB0144A593B0220691C032784460426012551
S214020BC008782B2813D0622816D0E260019A626158
S214020BD01B0704D5022200212000FFF7ADFE2000ED
S214020BE0FEBD00230122E5E704230222E2E7604677
S214020BF03A4303430131E3E732432B43FAE7002447
S214020C00EDE7C04602800000F0B5C56804004769FB
S214020C10066989B0AB0720D02B0716D400F022F85D
S214020C20380000F0A6F82B0502D5300000F06DF86B
S214020C300B4BAD0DAD059D4207D120226846216AB9
S214020C4000F0A6F8684600F076F83C220021200064
S214020C5000F057F8002009B0F0BD01204042FAE744
S214020C60000080ADF8B5002812D000F01BF8050091
S214020C702800F8BD38006043084BC01800F012F890
S214020C80002801D001256D420134A642F2DCEFE7CE
S214020C90034B040005003C271E68F6E7A8E0FF1F8A
S214020CA09C0D0200C36870B503221E0004001640A5
S214020CB0134211D09B0611D5856AFFF7BBFDE36888
S214020CC0094A20001340E360FFF7D4FD0022060025
S214020CD029002000FFF730FE300070BD83690568EA
S214020CE0ED180369ED1AEAE7FFCFFFFF80B500AF04
S214020CF0C046BD4680BD10B5FFF7BAFEFFF7BEFC84
S214020D0010BD10B500F020F810BD10B5002811D0A7
S214020D1080210C38490501608268002A0AD01368CF
S214020D208B4207D14368546803331B1943609368A8
S214020D308360F1E710BD10B50400FFF7FDFE010069
S214020D40200000F01FF810BD8446043A09D383073A
S214020D5007D109060B0A19430B0C1943043A02C0C1
S214020D60FCD2043203D001700130013AFBD1604656
S214020D7070470120404270470120404270470120E0
S214020D80404270470120404270470120404270476F
S214020D9001204042704710007047FFFF030000002A
S208020DA0720077005F
S8040204D520
