S0100000626C696E6B4C65642E73726563EF
S113A00000E8FF1F61A10000AFA10000BBA1000098
S113A02000000000000000000000000061A2000029
S113A030000000000000000063A2000065A2000010
S113A040F9A1000001A2000009A2000011A2000071
S113A07039A2000041A2000049A2000059A2000038
S113A08059A2000059A2000059A2000059A20000E0
S113A09059A2000059A2000059A2000051A20000D8
S113A0A059A2000059A2000059A2000059A20000C0
S113A0B059A2000059A2000059A2000059A20000B0
S113A0C080B500F00EF800F02DF81B4801688022DE