S11304303C68BA68FB1D1978F868230001F0D8FEFF
S113044003001800BD4605B090BDC046A4290000B5
S11304500FB4F0B5A5B000AF00238C243A19136093
S1130460002388257A1913603B1D180080231A0085
S1130470002102F0F6F99C2308269B1908229446D1
S1130480BC44634484217A181360114B3A1D7918D3
S11304900968982080190826B446BC446044006862
S11304A001F072FF03003A1913603B191A683B1DEF
S11304B01100180000F0BCF803007A1913607B19CE
S11304C01B681800BD4625B0F0BC08BC04B0184732
S11304D08520000090B58BB000AFF860B9607A60F9
S11304E03B60FB68002B03D12A4B180001F008FA8B
S11304F0FB681A79284B1A71FB681A68264B1A6034
S1130500254B1B79062B05D03EDC012B02D0032B97
S11305101DD039E01C243B19180001F03FF82100DC
S11305207B18BA681A601C4B1B687A687918180023
S113053000F038FF184B1B680121180001F0D8FDAA
S1130540154B1B680121180001F0F2FD1DE0102479
S11305503B19180000F0DCFD21007B18BA681A6012
S11305600D4B1B687A687918180000F099FC0A4B47
S11305701B680121180001F0FBFD074B1B680121DA
S1130580180001F015FE00E0C046C046BD460BB0A1
S113059090BDC046E829000088E0FF1F80B586B002
S11305A000AFF860B960FB1D1A7000237B611F4B1C
S11305B01B79062B05D030DC012B02D0032B16D07F
S11305C02BE0FB1D1B78002B07D0184B1B68BA6867
S11305D0F968180002F01BF922E0144B1B68BA6892
S11305E0F968180000F0FEFF03007B6118E0FB1DB2
S11305F01B78002B07D00D4B1B68BA68F9681800EC
S113060000F0F4FD0CE0094B1B68BA68F9681800A7
S113061000F012FE03007B6102E001237B61C0460F
S11306207B691800BD4606B080BDC04688E0FF1F48
S113063080B582B000AF786039607B68002B03D14D
S1130640074B180001F05CF93A687B681100180048
S113065001F0EBFD03001800BD4602B080BDC046AA
S1130660042A000080B582B000AF00237B60002321
S11306707B6003E0C0467B6801337B607B68044A8F
S11306809342F7D9C046C046BD4602B080BDC046BD
S1130690FF340C0080B582B000AF3B1D01221A70FC
S11306A03B1D00225A7001F0E9F801F07BF801F0DB
S11306B025F80C4B1800FFF7CBFE0B4B1800FFF787
S11306C0C7FE3B1D09481A001D2100F079FBFFF706
S11306D0C9FF80239B05054A1900100001F0E6FFBD
S11306E0C046F4E7202A00003C2A000000F10F4035
S11306F004207146084202D0EFF3098001E0EFF3D1
S1130700088081690A88074B9A4200D0FEE70231CB
S113071081610168012901D0002100E020210160EC
S11307207047C046ABBE000080B582B000AF7860B1
S1130730084B1B68084A134019007B689A04C023BD
S11307401B031A40034B0A431A60C046BD4602B05D
S113075080BDC04600700440FFFFF3FF80B582B047
S113076000AF7860084A094BD358094A1A407B689D
S1130770190480235B020B4003491343034A8B5043
S1130780C046BD4602B080BD0070044004100000A5
S1130790FFFFFEFF80B500AF064B1B68002B03D1A3
S11307A0054B180001F0ACF8024B1B681800BD465D
S11307B080BDC04690E0FF1F582A000080B582B07B
S11307C000AFFFF7E7FF03007B607B68002B01D1DC
S11307D07B6840E0224B1B78DBB2DB08DAB2FB1CFF
S11307E007210A401A70FB1C1B787A68DA40130050
S11307F07B601B4B5B78DBB21B09DAB2BB1C0321A9
S11308000A401A70BB1C1B78002B23D0FB1C1B78DE
S1130810072B14D01BDC052B02DC002B03DA16E0BB
S1130820062B04D013E07B685B097B6012E07B68D5
S11308301421180002F052F803007B600AE07B6880
S11308400C21180002F04AF803007B6002E0002348
S11308507B60C0467B681800BD4602B080BDC046C0
S11308600040064080B500AF074B9B79DBB21A000D
S11308701023134003D1FFF7A1FF030001E0034B52
