S113280000600020D528000043290000F92D0000B5
S113281000000000000000000000000000000000B4
S11328200000000000000000000000004729000034
S11328300000000000000000492900004B290000AE
S11328404F290000572900005F2900006729000074
S11328506F290000772900007F29000087290000E4
S11328608F290000972900009F290000A729000054
S1132870AF290000B7290000BF290000C7290000C4
S1132880CF290000D7290000DF290000E729000034
